{
  "_format": "hh-sol-artifact-1",
  "contractName": "Staking",
  "sourceName": "contracts/Staking.sol",
  "abi": [
    {
      "inputs": [
        {
          "internalType": "address",
          "name": "_HashBackToken",
          "type": "address"
        }
      ],
      "stateMutability": "nonpayable",
      "type": "constructor"
    },
    {
      "inputs": [],
      "name": "HashBackToken",
      "outputs": [
        {
          "internalType": "contract IERC20",
          "name": "",
          "type": "address"
        }
      ],
      "stateMutability": "view",
      "type": "function"
    },
    {
      "inputs": [
        {
          "internalType": "address",
          "name": "",
          "type": "address"
        }
      ],
      "name": "balanceOf",
      "outputs": [
        {
          "internalType": "uint256",
          "name": "",
          "type": "uint256"
        }
      ],
      "stateMutability": "view",
      "type": "function"
    },
    {
      "inputs": [],
      "name": "duration",
      "outputs": [
        {
          "internalType": "uint256",
          "name": "",
          "type": "uint256"
        }
      ],
      "stateMutability": "view",
      "type": "function"
    },
    {
      "inputs": [
        {
          "internalType": "address",
          "name": "_account",
          "type": "address"
        }
      ],
      "name": "earned",
      "outputs": [
        {
          "internalType": "uint256",
          "name": "",
          "type": "uint256"
        }
      ],
      "stateMutability": "view",
      "type": "function"
    },
    {
      "inputs": [],
      "name": "finishAt",
      "outputs": [
        {
          "internalType": "uint256",
          "name": "",
          "type": "uint256"
        }
      ],
      "stateMutability": "view",
      "type": "function"
    },
    {
      "inputs": [],
      "name": "getReward",
      "outputs": [],
      "stateMutability": "nonpayable",
      "type": "function"
    },
    {
      "inputs": [],
      "name": "lastTimeRewardApplicable",
      "outputs": [
        {
          "internalType": "uint256",
          "name": "",
          "type": "uint256"
        }
      ],
      "stateMutability": "view",
      "type": "function"
    },
    {
      "inputs": [
        {
          "internalType": "uint256",
          "name": "_amount",
          "type": "uint256"
        }
      ],
      "name": "notifyRewardAmount",
      "outputs": [],
      "stateMutability": "nonpayable",
      "type": "function"
    },
    {
      "inputs": [],
      "name": "owner",
      "outputs": [
        {
          "internalType": "address",
          "name": "",
          "type": "address"
        }
      ],
      "stateMutability": "view",
      "type": "function"
    },
    {
      "inputs": [],
      "name": "rewardPerToken",
      "outputs": [
        {
          "internalType": "uint256",
          "name": "",
          "type": "uint256"
        }
      ],
      "stateMutability": "view",
      "type": "function"
    },
    {
      "inputs": [],
      "name": "rewardPerTokenStored",
      "outputs": [
        {
          "internalType": "uint256",
          "name": "",
          "type": "uint256"
        }
      ],
      "stateMutability": "view",
      "type": "function"
    },
    {
      "inputs": [],
      "name": "rewardRate",
      "outputs": [
        {
          "internalType": "uint256",
          "name": "",
          "type": "uint256"
        }
      ],
      "stateMutability": "view",
      "type": "function"
    },
    {
      "inputs": [
        {
          "internalType": "address",
          "name": "",
          "type": "address"
        }
      ],
      "name": "rewards",
      "outputs": [
        {
          "internalType": "uint256",
          "name": "",
          "type": "uint256"
        }
      ],
      "stateMutability": "view",
      "type": "function"
    },
    {
      "inputs": [
        {
          "internalType": "uint256",
          "name": "_duration",
          "type": "uint256"
        }
      ],
      "name": "setRewardsDuration",
      "outputs": [],
      "stateMutability": "nonpayable",
      "type": "function"
    },
    {
      "inputs": [
        {
          "internalType": "uint256",
          "name": "_amount",
          "type": "uint256"
        }
      ],
      "name": "stake",
      "outputs": [],
      "stateMutability": "nonpayable",
      "type": "function"
    },
    {
      "inputs": [
        {
          "internalType": "address",
          "name": "",
          "type": "address"
        }
      ],
      "name": "tokensStaked",
      "outputs": [
        {
          "internalType": "uint256",
          "name": "",
          "type": "uint256"
        }
      ],
      "stateMutability": "view",
      "type": "function"
    },
    {
      "inputs": [],
      "name": "totalSupply",
      "outputs": [
        {
          "internalType": "uint256",
          "name": "",
          "type": "uint256"
        }
      ],
      "stateMutability": "view",
      "type": "function"
    },
    {
      "inputs": [],
      "name": "updatedAt",
      "outputs": [
        {
          "internalType": "uint256",
          "name": "",
          "type": "uint256"
        }
      ],
      "stateMutability": "view",
      "type": "function"
    },
    {
      "inputs": [
        {
          "internalType": "address",
          "name": "",
          "type": "address"
        }
      ],
      "name": "userRewardPerTokenPaid",
      "outputs": [
        {
          "internalType": "uint256",
          "name": "",
          "type": "uint256"
        }
      ],
      "stateMutability": "view",
      "type": "function"
    },
    {
      "inputs": [
        {
          "internalType": "uint256",
          "name": "_amount",
          "type": "uint256"
        }
      ],
      "name": "withdraw",
      "outputs": [],
      "stateMutability": "nonpayable",
      "type": "function"
    }
  ],
  "bytecode": "0x60a06040523480156200001157600080fd5b50604051620018ee380380620018ee8339818101604052810190620000379190620000cc565b336000806101000a81548173ffffffffffffffffffffffffffffffffffffffff021916908373ffffffffffffffffffffffffffffffffffffffff1602179055508073ffffffffffffffffffffffffffffffffffffffff1660808173ffffffffffffffffffffffffffffffffffffffff1660601b815250505062000146565b600081519050620000c6816200012c565b92915050565b600060208284031215620000df57600080fd5b6000620000ef84828501620000b5565b91505092915050565b600062000105826200010c565b9050919050565b600073ffffffffffffffffffffffffffffffffffffffff82169050919050565b6200013781620000f8565b81146200014357600080fd5b50565b60805160601c61176d620001816000396000818161069c0152818161096801528181610bf701528181610e4a0152611110015261176d6000f3fe608060405234801561001057600080fd5b506004361061012b5760003560e01c80637519ab50116100ad578063a694fc3a11610071578063a694fc3a14610334578063cc1a378f14610350578063cd3daf9d1461036c578063df136d651461038a578063fc510c5c146103a85761012b565b80637519ab501461028c5780637b0a47ee146102aa57806380faa57d146102c85780638b876347146102e65780638da5cb5b146103165761012b565b80632e1a7d4d116100f45780632e1a7d4d146101fc5780633c6b16ab146102185780633d18b9121461023457806367d3b4881461023e57806370a082311461025c5761012b565b80628cc262146101305780630700037d146101605780630fb5a6b41461019057806318160ddd146101ae5780632cf01b55146101cc575b600080fd5b61014a600480360381019061014591906111a0565b6103c6565b60405161015791906114e7565b60405180910390f35b61017a600480360381019061017591906111a0565b6104c8565b60405161018791906114e7565b60405180910390f35b6101986104e0565b6040516101a591906114e7565b60405180910390f35b6101b66104e6565b6040516101c391906114e7565b60405180910390f35b6101e660048036038101906101e191906111a0565b6104ec565b6040516101f391906114e7565b60405180910390f35b610216600480360381019061021191906111f2565b610504565b005b610232600480360381019061022d91906111f2565b61074c565b005b61023c610a7f565b005b610246610ca8565b60405161025391906114e7565b60405180910390f35b610276600480360381019061027191906111a0565b610cae565b60405161028391906114e7565b60405180910390f35b610294610cc6565b6040516102a191906114e7565b60405180910390f35b6102b2610ccc565b6040516102bf91906114e7565b60405180910390f35b6102d0610cd2565b6040516102dd91906114e7565b60405180910390f35b61030060048036038101906102fb91906111a0565b610ce5565b60405161030d91906114e7565b60405180910390f35b61031e610cfd565b60405161032b91906113b1565b60405180910390f35b61034e600480360381019061034991906111f2565b610d21565b005b61036a600480360381019061036591906111f2565b610fc1565b005b61037461109d565b60405161038191906114e7565b60405180910390f35b610392611108565b60405161039f91906114e7565b60405180910390f35b6103b061110e565b6040516103bd919061142c565b60405180910390f35b6000600760008373ffffffffffffffffffffffffffffffffffffffff1673ffffffffffffffffffffffffffffffffffffffff16815260200190815260200160002054670de0b6b3a7640000600660008573ffffffffffffffffffffffffffffffffffffffff1673ffffffffffffffffffffffffffffffffffffffff1681526020019081526020016000205461045961109d565b61046391906115f4565b600a60008673ffffffffffffffffffffffffffffffffffffffff1673ffffffffffffffffffffffffffffffffffffffff168152602001908152602001600020546104ad919061159a565b6104b79190611569565b6104c19190611513565b9050919050565b60076020528060005260406000206000915090505481565b60015481565b60095481565b60086020528060005260406000206000915090505481565b3361050d61109d565b60058190555061051b610cd2565b600381905550600073ffffffffffffffffffffffffffffffffffffffff168173ffffffffffffffffffffffffffffffffffffffff16146105e85761055e816103c6565b600760008373ffffffffffffffffffffffffffffffffffffffff1673ffffffffffffffffffffffffffffffffffffffff16815260200190815260200160002081905550600554600660008373ffffffffffffffffffffffffffffffffffffffff1673ffffffffffffffffffffffffffffffffffffffff168152602001908152602001600020819055505b6000821161062b576040517f08c379a0000000000000000000000000000000000000000000000000000000008152600401610622906114a7565b60405180910390fd5b81600a60003373ffffffffffffffffffffffffffffffffffffffff1673ffffffffffffffffffffffffffffffffffffffff168152602001908152602001600020600082825461067a91906115f4565b92505081905550816009600082825461069391906115f4565b925050819055507f000000000000000000000000000000000000000000000000000000000000000073ffffffffffffffffffffffffffffffffffffffff1663a9059cbb33846040518363ffffffff1660e01b81526004016106f5929190611403565b602060405180830381600087803b15801561070f57600080fd5b505af1158015610723573d6000803e3d6000fd5b505050506040513d601f19601f8201168201806040525081019061074791906111c9565b505050565b60008054906101000a900473ffffffffffffffffffffffffffffffffffffffff1673ffffffffffffffffffffffffffffffffffffffff163373ffffffffffffffffffffffffffffffffffffffff16146107da576040517f08c379a00000000000000000000000000000000000000000000000000000000081526004016107d190611467565b60405180910390fd5b60006107e461109d565b6005819055506107f2610cd2565b600381905550600073ffffffffffffffffffffffffffffffffffffffff168173ffffffffffffffffffffffffffffffffffffffff16146108bf57610835816103c6565b600760008373ffffffffffffffffffffffffffffffffffffffff1673ffffffffffffffffffffffffffffffffffffffff16815260200190815260200160002081905550600554600660008373ffffffffffffffffffffffffffffffffffffffff1673ffffffffffffffffffffffffffffffffffffffff168152602001908152602001600020819055505b60025442106108e157600154826108d69190611569565b600481905550610921565b6000600454426002546108f491906115f4565b6108fe919061159a565b9050600154818461090f9190611513565b6109199190611569565b600481905550505b600060045411610966576040517f08c379a000000000000000000000000000000000000000000000000000000000815260040161095d906114c7565b60405180910390fd5b7f000000000000000000000000000000000000000000000000000000000000000073ffffffffffffffffffffffffffffffffffffffff166370a08231306040518263ffffffff1660e01b81526004016109bf91906113b1565b60206040518083038186803b1580156109d757600080fd5b505afa1580156109eb573d6000803e3d6000fd5b505050506040513d601f19601f82011682018060405250810190610a0f919061121b565b600154600454610a1f919061159a565b1115610a60576040517f08c379a0000000000000000000000000000000000000000000000000000000008152600401610a5790611487565b60405180910390fd5b60015442610a6e9190611513565b600281905550426003819055505050565b33610a8861109d565b600581905550610a96610cd2565b600381905550600073ffffffffffffffffffffffffffffffffffffffff168173ffffffffffffffffffffffffffffffffffffffff1614610b6357610ad9816103c6565b600760008373ffffffffffffffffffffffffffffffffffffffff1673ffffffffffffffffffffffffffffffffffffffff16815260200190815260200160002081905550600554600660008373ffffffffffffffffffffffffffffffffffffffff1673ffffffffffffffffffffffffffffffffffffffff168152602001908152602001600020819055505b6000600760003373ffffffffffffffffffffffffffffffffffffffff1673ffffffffffffffffffffffffffffffffffffffff1681526020019081526020016000205490506000811115610ca4576000600760003373ffffffffffffffffffffffffffffffffffffffff1673ffffffffffffffffffffffffffffffffffffffff168152602001908152602001600020819055507f000000000000000000000000000000000000000000000000000000000000000073ffffffffffffffffffffffffffffffffffffffff1663a9059cbb33836040518363ffffffff1660e01b8152600401610c50929190611403565b602060405180830381600087803b158015610c6a57600080fd5b505af1158015610c7e573d6000803e3d6000fd5b505050506040513d601f19601f82011682018060405250810190610ca291906111c9565b505b5050565b60025481565b600a6020528060005260406000206000915090505481565b60035481565b60045481565b6000610ce060025442611132565b905090565b60066020528060005260406000206000915090505481565b60008054906101000a900473ffffffffffffffffffffffffffffffffffffffff1681565b33610d2a61109d565b600581905550610d38610cd2565b600381905550600073ffffffffffffffffffffffffffffffffffffffff168173ffffffffffffffffffffffffffffffffffffffff1614610e0557610d7b816103c6565b600760008373ffffffffffffffffffffffffffffffffffffffff1673ffffffffffffffffffffffffffffffffffffffff16815260200190815260200160002081905550600554600660008373ffffffffffffffffffffffffffffffffffffffff1673ffffffffffffffffffffffffffffffffffffffff168152602001908152602001600020819055505b60008211610e48576040517f08c379a0000000000000000000000000000000000000000000000000000000008152600401610e3f906114a7565b60405180910390fd5b7f000000000000000000000000000000000000000000000000000000000000000073ffffffffffffffffffffffffffffffffffffffff166323b872dd3330856040518463ffffffff1660e01b8152600401610ea5939291906113cc565b602060405180830381600087803b158015610ebf57600080fd5b505af1158015610ed3573d6000803e3d6000fd5b505050506040513d601f19601f82011682018060405250810190610ef791906111c9565b5081600a60003373ffffffffffffffffffffffffffffffffffffffff1673ffffffffffffffffffffffffffffffffffffffff1681526020019081526020016000206000828254610f479190611513565b9250508190555081600860003373ffffffffffffffffffffffffffffffffffffffff1673ffffffffffffffffffffffffffffffffffffffff1681526020019081526020016000206000828254610f9d9190611513565b925050819055508160096000828254610fb69190611513565b925050819055505050565b60008054906101000a900473ffffffffffffffffffffffffffffffffffffffff1673ffffffffffffffffffffffffffffffffffffffff163373ffffffffffffffffffffffffffffffffffffffff161461104f576040517f08c379a000000000000000000000000000000000000000000000000000000000815260040161104690611467565b60405180910390fd5b4260025410611093576040517f08c379a000000000000000000000000000000000000000000000000000000000815260040161108a90611447565b60405180910390fd5b8060018190555050565b60008060095414156110b3576005549050611105565b600954670de0b6b3a76400006003546110ca610cd2565b6110d491906115f4565b6004546110e1919061159a565b6110eb919061159a565b6110f59190611569565b6005546111029190611513565b90505b90565b60055481565b7f000000000000000000000000000000000000000000000000000000000000000081565b6000818311156111425781611144565b825b905092915050565b60008135905061115b816116f2565b92915050565b60008151905061117081611709565b92915050565b60008135905061118581611720565b92915050565b60008151905061119a81611720565b92915050565b6000602082840312156111b257600080fd5b60006111c08482850161114c565b91505092915050565b6000602082840312156111db57600080fd5b60006111e984828501611161565b91505092915050565b60006020828403121561120457600080fd5b600061121284828501611176565b91505092915050565b60006020828403121561122d57600080fd5b600061123b8482850161118b565b91505092915050565b61124d81611628565b82525050565b61125c81611670565b82525050565b600061126f601c83611502565b91507f726577617264206475726174696f6e206e6f742066696e6973686564000000006000830152602082019050919050565b60006112af600e83611502565b91507f6e6f7420617574686f72697a65640000000000000000000000000000000000006000830152602082019050919050565b60006112ef601783611502565b91507f72657761726420616d6f756e74203e2062616c616e63650000000000000000006000830152602082019050919050565b600061132f600a83611502565b91507f616d6f756e74203d2030000000000000000000000000000000000000000000006000830152602082019050919050565b600061136f600f83611502565b91507f7265776172642072617465203d203000000000000000000000000000000000006000830152602082019050919050565b6113ab81611666565b82525050565b60006020820190506113c66000830184611244565b92915050565b60006060820190506113e16000830186611244565b6113ee6020830185611244565b6113fb60408301846113a2565b949350505050565b60006040820190506114186000830185611244565b61142560208301846113a2565b9392505050565b60006020820190506114416000830184611253565b92915050565b6000602082019050818103600083015261146081611262565b9050919050565b60006020820190508181036000830152611480816112a2565b9050919050565b600060208201905081810360008301526114a0816112e2565b9050919050565b600060208201905081810360008301526114c081611322565b9050919050565b600060208201905081810360008301526114e081611362565b9050919050565b60006020820190506114fc60008301846113a2565b92915050565b600082825260208201905092915050565b600061151e82611666565b915061152983611666565b9250827fffffffffffffffffffffffffffffffffffffffffffffffffffffffffffffffff0382111561155e5761155d611694565b5b828201905092915050565b600061157482611666565b915061157f83611666565b92508261158f5761158e6116c3565b5b828204905092915050565b60006115a582611666565b91506115b083611666565b9250817fffffffffffffffffffffffffffffffffffffffffffffffffffffffffffffffff04831182151516156115e9576115e8611694565b5b828202905092915050565b60006115ff82611666565b915061160a83611666565b92508282101561161d5761161c611694565b5b828203905092915050565b600061163382611646565b9050919050565b60008115159050919050565b600073ffffffffffffffffffffffffffffffffffffffff82169050919050565b6000819050919050565b600061167b82611682565b9050919050565b600061168d82611646565b9050919050565b7f4e487b7100000000000000000000000000000000000000000000000000000000600052601160045260246000fd5b7f4e487b7100000000000000000000000000000000000000000000000000000000600052601260045260246000fd5b6116fb81611628565b811461170657600080fd5b50565b6117128161163a565b811461171d57600080fd5b50565b61172981611666565b811461173457600080fd5b5056fea2646970667358221220d749bd03c84b5ab370daafebcad7ffeac6774849717721eebc9727287b92016964736f6c63430008000033",
  "linkReferences": {},
  "deployedLinkReferences": {}
}