{
  "_format": "hh-sol-artifact-1",
  "contractName": "Staking",
  "sourceName": "contracts/Staking.sol",
  "abi": [
    {
      "inputs": [
        {
          "internalType": "address",
          "name": "_HashBackToken",
          "type": "address"
        }
      ],
      "stateMutability": "nonpayable",
      "type": "constructor"
    },
    {
      "inputs": [],
      "name": "HashBackToken",
      "outputs": [
        {
          "internalType": "contract IERC20",
          "name": "",
          "type": "address"
        }
      ],
      "stateMutability": "view",
      "type": "function"
    },
    {
      "inputs": [
        {
          "internalType": "address",
          "name": "",
          "type": "address"
        }
      ],
      "name": "balanceOf",
      "outputs": [
        {
          "internalType": "uint256",
          "name": "",
          "type": "uint256"
        }
      ],
      "stateMutability": "view",
      "type": "function"
    },
    {
      "inputs": [],
      "name": "currentPositionId",
      "outputs": [
        {
          "internalType": "uint256",
          "name": "",
          "type": "uint256"
        }
      ],
      "stateMutability": "view",
      "type": "function"
    },
    {
      "inputs": [],
      "name": "duration",
      "outputs": [
        {
          "internalType": "uint256",
          "name": "",
          "type": "uint256"
        }
      ],
      "stateMutability": "view",
      "type": "function"
    },
    {
      "inputs": [
        {
          "internalType": "address",
          "name": "_account",
          "type": "address"
        }
      ],
      "name": "earned",
      "outputs": [
        {
          "internalType": "uint256",
          "name": "",
          "type": "uint256"
        }
      ],
      "stateMutability": "view",
      "type": "function"
    },
    {
      "inputs": [],
      "name": "finishAt",
      "outputs": [
        {
          "internalType": "uint256",
          "name": "",
          "type": "uint256"
        }
      ],
      "stateMutability": "view",
      "type": "function"
    },
    {
      "inputs": [
        {
          "internalType": "address",
          "name": "_account",
          "type": "address"
        }
      ],
      "name": "getPositionById",
      "outputs": [
        {
          "components": [
            {
              "internalType": "address",
              "name": "walletAddress",
              "type": "address"
            },
            {
              "internalType": "uint256",
              "name": "createdDate",
              "type": "uint256"
            },
            {
              "internalType": "uint256",
              "name": "rewardsPerTokenStored",
              "type": "uint256"
            },
            {
              "internalType": "uint256",
              "name": "stakedAmount",
              "type": "uint256"
            },
            {
              "internalType": "bool",
              "name": "open",
              "type": "bool"
            }
          ],
          "internalType": "struct Staking.Position",
          "name": "",
          "type": "tuple"
        }
      ],
      "stateMutability": "view",
      "type": "function"
    },
    {
      "inputs": [],
      "name": "getPositionIdsForAddress",
      "outputs": [
        {
          "internalType": "uint256[]",
          "name": "",
          "type": "uint256[]"
        }
      ],
      "stateMutability": "view",
      "type": "function"
    },
    {
      "inputs": [],
      "name": "getReward",
      "outputs": [],
      "stateMutability": "nonpayable",
      "type": "function"
    },
    {
      "inputs": [],
      "name": "lastTimeRewardApplicable",
      "outputs": [
        {
          "internalType": "uint256",
          "name": "",
          "type": "uint256"
        }
      ],
      "stateMutability": "view",
      "type": "function"
    },
    {
      "inputs": [],
      "name": "lastUpdateTime",
      "outputs": [
        {
          "internalType": "uint256",
          "name": "",
          "type": "uint256"
        }
      ],
      "stateMutability": "view",
      "type": "function"
    },
    {
      "inputs": [
        {
          "internalType": "uint256",
          "name": "_amount",
          "type": "uint256"
        }
      ],
      "name": "notifyRewardAmount",
      "outputs": [],
      "stateMutability": "nonpayable",
      "type": "function"
    },
    {
      "inputs": [],
      "name": "owner",
      "outputs": [
        {
          "internalType": "address",
          "name": "",
          "type": "address"
        }
      ],
      "stateMutability": "view",
      "type": "function"
    },
    {
      "inputs": [
        {
          "internalType": "address",
          "name": "",
          "type": "address"
        },
        {
          "internalType": "uint256",
          "name": "",
          "type": "uint256"
        }
      ],
      "name": "positionIdsByAddress",
      "outputs": [
        {
          "internalType": "uint256",
          "name": "",
          "type": "uint256"
        }
      ],
      "stateMutability": "view",
      "type": "function"
    },
    {
      "inputs": [
        {
          "internalType": "address",
          "name": "",
          "type": "address"
        }
      ],
      "name": "positions",
      "outputs": [
        {
          "internalType": "address",
          "name": "walletAddress",
          "type": "address"
        },
        {
          "internalType": "uint256",
          "name": "createdDate",
          "type": "uint256"
        },
        {
          "internalType": "uint256",
          "name": "rewardsPerTokenStored",
          "type": "uint256"
        },
        {
          "internalType": "uint256",
          "name": "stakedAmount",
          "type": "uint256"
        },
        {
          "internalType": "bool",
          "name": "open",
          "type": "bool"
        }
      ],
      "stateMutability": "view",
      "type": "function"
    },
    {
      "inputs": [],
      "name": "rewardPerToken",
      "outputs": [
        {
          "internalType": "uint256",
          "name": "",
          "type": "uint256"
        }
      ],
      "stateMutability": "view",
      "type": "function"
    },
    {
      "inputs": [],
      "name": "rewardPerTokenStored",
      "outputs": [
        {
          "internalType": "uint256",
          "name": "",
          "type": "uint256"
        }
      ],
      "stateMutability": "view",
      "type": "function"
    },
    {
      "inputs": [],
      "name": "rewardRate",
      "outputs": [
        {
          "internalType": "uint256",
          "name": "",
          "type": "uint256"
        }
      ],
      "stateMutability": "view",
      "type": "function"
    },
    {
      "inputs": [
        {
          "internalType": "address",
          "name": "",
          "type": "address"
        }
      ],
      "name": "rewards",
      "outputs": [
        {
          "internalType": "uint256",
          "name": "",
          "type": "uint256"
        }
      ],
      "stateMutability": "view",
      "type": "function"
    },
    {
      "inputs": [
        {
          "internalType": "uint256",
          "name": "_duration",
          "type": "uint256"
        }
      ],
      "name": "setRewardsDuration",
      "outputs": [],
      "stateMutability": "nonpayable",
      "type": "function"
    },
    {
      "inputs": [
        {
          "internalType": "uint256",
          "name": "_amount",
          "type": "uint256"
        }
      ],
      "name": "stake",
      "outputs": [],
      "stateMutability": "nonpayable",
      "type": "function"
    },
    {
      "inputs": [
        {
          "internalType": "address",
          "name": "",
          "type": "address"
        }
      ],
      "name": "tokensStaked",
      "outputs": [
        {
          "internalType": "uint256",
          "name": "",
          "type": "uint256"
        }
      ],
      "stateMutability": "view",
      "type": "function"
    },
    {
      "inputs": [],
      "name": "updatedAt",
      "outputs": [
        {
          "internalType": "uint256",
          "name": "",
          "type": "uint256"
        }
      ],
      "stateMutability": "view",
      "type": "function"
    },
    {
      "inputs": [
        {
          "internalType": "address",
          "name": "",
          "type": "address"
        }
      ],
      "name": "userRewardPerTokenPaid",
      "outputs": [
        {
          "internalType": "uint256",
          "name": "",
          "type": "uint256"
        }
      ],
      "stateMutability": "view",
      "type": "function"
    },
    {
      "inputs": [
        {
          "internalType": "uint256",
          "name": "_amount",
          "type": "uint256"
        }
      ],
      "name": "withdraw",
      "outputs": [],
      "stateMutability": "nonpayable",
      "type": "function"
    }
  ],
  "bytecode": "0x60a06040526103e8600e553480156200001757600080fd5b506040516200217e3803806200217e83398181016040528101906200003d9190620000db565b600060068190555033600560006101000a81548173ffffffffffffffffffffffffffffffffffffffff021916908373ffffffffffffffffffffffffffffffffffffffff1602179055508073ffffffffffffffffffffffffffffffffffffffff1660808173ffffffffffffffffffffffffffffffffffffffff1660601b815250505062000155565b600081519050620000d5816200013b565b92915050565b600060208284031215620000ee57600080fd5b6000620000fe84828501620000c4565b91505092915050565b600062000114826200011b565b9050919050565b600073ffffffffffffffffffffffffffffffffffffffff82169050919050565b620001468162000107565b81146200015257600080fd5b50565b60805160601c611fee62000190600039600081816107fc01528181610c0901528181610ee1015281816112a8015261172b0152611fee6000f3fe608060405234801561001057600080fd5b50600436106101725760003560e01c806370a08231116100de578063a694fc3a11610097578063cd3daf9d11610071578063cd3daf9d14610453578063d8a0aa6c14610471578063df136d65146104a1578063fc510c5c146104bf57610172565b8063a694fc3a146103fd578063c8f33c9114610419578063cc1a378f1461043757610172565b806370a08231146103255780637519ab50146103555780637b0a47ee1461037357806380faa57d146103915780638b876347146103af5780638da5cb5b146103df57610172565b80633c6b16ab116101305780633c6b16ab1461025f5780633d18b9121461027b57806345eae373146102855780634b4ea954146102b557806355f57510146102d357806367d3b4881461030757610172565b80628cc262146101775780630700037d146101a75780630fb5a6b4146101d75780631131c8cd146101f55780632cf01b55146102135780632e1a7d4d14610243575b600080fd5b610191600480360381019061018c9190611802565b6104dd565b60405161019e9190611d2f565b60405180910390f35b6101c160048036038101906101bc9190611802565b6105df565b6040516101ce9190611d2f565b60405180910390f35b6101df6105f7565b6040516101ec9190611d2f565b60405180910390f35b6101fd6105fd565b60405161020a9190611d2f565b60405180910390f35b61022d60048036038101906102289190611802565b610603565b60405161023a9190611d2f565b60405180910390f35b61025d60048036038101906102589190611890565b61061b565b005b61027960048036038101906102749190611890565b6109a2565b005b610283610d20565b005b61029f600480360381019061029a919061182b565b610f92565b6040516102ac9190611d2f565b60405180910390f35b6102bd610fc3565b6040516102ca9190611c37565b60405180910390f35b6102ed60048036038101906102e89190611802565b611058565b6040516102fe959493929190611be4565b60405180910390f35b61030f6110bb565b60405161031c9190611d2f565b60405180910390f35b61033f600480360381019061033a9190611802565b6110c1565b60405161034c9190611d2f565b60405180910390f35b61035d6110d9565b60405161036a9190611d2f565b60405180910390f35b61037b6110df565b6040516103889190611d2f565b60405180910390f35b6103996110e5565b6040516103a69190611d2f565b60405180910390f35b6103c960048036038101906103c49190611802565b6110f8565b6040516103d69190611d2f565b60405180910390f35b6103e7611110565b6040516103f49190611b69565b60405180910390f35b61041760048036038101906104129190611890565b611136565b005b6104216114ec565b60405161042e9190611d2f565b60405180910390f35b610451600480360381019061044c9190611890565b6114f2565b005b61045b6115d0565b6040516104689190611d2f565b60405180910390f35b61048b60048036038101906104869190611802565b61163b565b6040516104989190611d14565b60405180910390f35b6104a9611723565b6040516104b69190611d2f565b60405180910390f35b6104c7611729565b6040516104d49190611c59565b60405180910390f35b6000601160008373ffffffffffffffffffffffffffffffffffffffff1673ffffffffffffffffffffffffffffffffffffffff16815260200190815260200160002054670de0b6b3a7640000601060008573ffffffffffffffffffffffffffffffffffffffff1673ffffffffffffffffffffffffffffffffffffffff168152602001908152602001600020546105706115d0565b61057a9190611e75565b601460008673ffffffffffffffffffffffffffffffffffffffff1673ffffffffffffffffffffffffffffffffffffffff168152602001908152602001600020546105c49190611e1b565b6105ce9190611dea565b6105d89190611d94565b9050919050565b60116020528060005260406000206000915090505481565b600a5481565b60065481565b60126020528060005260406000206000915090505481565b336106246115d0565b600f819055506106326110e5565b600c81905550600f54600760008373ffffffffffffffffffffffffffffffffffffffff1673ffffffffffffffffffffffffffffffffffffffff16815260200190815260200160002060020181905550600073ffffffffffffffffffffffffffffffffffffffff168173ffffffffffffffffffffffffffffffffffffffff1614610748576106be816104dd565b601160008373ffffffffffffffffffffffffffffffffffffffff1673ffffffffffffffffffffffffffffffffffffffff16815260200190815260200160002081905550600f54601060008373ffffffffffffffffffffffffffffffffffffffff1673ffffffffffffffffffffffffffffffffffffffff168152602001908152602001600020819055505b6000821161078b576040517f08c379a000000000000000000000000000000000000000000000000000000000815260040161078290611cd4565b60405180910390fd5b81601460003373ffffffffffffffffffffffffffffffffffffffff1673ffffffffffffffffffffffffffffffffffffffff16815260200190815260200160002060008282546107da9190611e75565b9250508190555081601360008282546107f39190611e75565b925050819055507f000000000000000000000000000000000000000000000000000000000000000073ffffffffffffffffffffffffffffffffffffffff1663a9059cbb33846040518363ffffffff1660e01b8152600401610855929190611bbb565b602060405180830381600087803b15801561086f57600080fd5b505af1158015610883573d6000803e3d6000fd5b505050506040513d601f19601f820116820180604052508101906108a79190611867565b5081600760003373ffffffffffffffffffffffffffffffffffffffff1673ffffffffffffffffffffffffffffffffffffffff168152602001908152602001600020600301546108f69190611e75565b506000600760003373ffffffffffffffffffffffffffffffffffffffff1673ffffffffffffffffffffffffffffffffffffffff16815260200190815260200160002060030154141561099e576000600760003373ffffffffffffffffffffffffffffffffffffffff1673ffffffffffffffffffffffffffffffffffffffff16815260200190815260200160002060040160006101000a81548160ff0219169083151502179055505b5050565b600560009054906101000a900473ffffffffffffffffffffffffffffffffffffffff1673ffffffffffffffffffffffffffffffffffffffff163373ffffffffffffffffffffffffffffffffffffffff1614610a32576040517f08c379a0000000000000000000000000000000000000000000000000000000008152600401610a2990611c94565b60405180910390fd5b6000610a3c6115d0565b600f81905550610a4a6110e5565b600c81905550600f54600760008373ffffffffffffffffffffffffffffffffffffffff1673ffffffffffffffffffffffffffffffffffffffff16815260200190815260200160002060020181905550600073ffffffffffffffffffffffffffffffffffffffff168173ffffffffffffffffffffffffffffffffffffffff1614610b6057610ad6816104dd565b601160008373ffffffffffffffffffffffffffffffffffffffff1673ffffffffffffffffffffffffffffffffffffffff16815260200190815260200160002081905550600f54601060008373ffffffffffffffffffffffffffffffffffffffff1673ffffffffffffffffffffffffffffffffffffffff168152602001908152602001600020819055505b600b544210610b8257600a5482610b779190611dea565b600e81905550610bc2565b6000600e5442600b54610b959190611e75565b610b9f9190611e1b565b9050600a548184610bb09190611d94565b610bba9190611dea565b600e81905550505b6000600e5411610c07576040517f08c379a0000000000000000000000000000000000000000000000000000000008152600401610bfe90611cf4565b60405180910390fd5b7f000000000000000000000000000000000000000000000000000000000000000073ffffffffffffffffffffffffffffffffffffffff166370a08231306040518263ffffffff1660e01b8152600401610c609190611b69565b60206040518083038186803b158015610c7857600080fd5b505afa158015610c8c573d6000803e3d6000fd5b505050506040513d601f19601f82011682018060405250810190610cb091906118b9565b600a54600e54610cc09190611e1b565b1115610d01576040517f08c379a0000000000000000000000000000000000000000000000000000000008152600401610cf890611cb4565b60405180910390fd5b600a5442610d0f9190611d94565b600b8190555042600c819055505050565b33610d296115d0565b600f81905550610d376110e5565b600c81905550600f54600760008373ffffffffffffffffffffffffffffffffffffffff1673ffffffffffffffffffffffffffffffffffffffff16815260200190815260200160002060020181905550600073ffffffffffffffffffffffffffffffffffffffff168173ffffffffffffffffffffffffffffffffffffffff1614610e4d57610dc3816104dd565b601160008373ffffffffffffffffffffffffffffffffffffffff1673ffffffffffffffffffffffffffffffffffffffff16815260200190815260200160002081905550600f54601060008373ffffffffffffffffffffffffffffffffffffffff1673ffffffffffffffffffffffffffffffffffffffff168152602001908152602001600020819055505b6000601160003373ffffffffffffffffffffffffffffffffffffffff1673ffffffffffffffffffffffffffffffffffffffff1681526020019081526020016000205490506000811115610f8e576000601160003373ffffffffffffffffffffffffffffffffffffffff1673ffffffffffffffffffffffffffffffffffffffff168152602001908152602001600020819055507f000000000000000000000000000000000000000000000000000000000000000073ffffffffffffffffffffffffffffffffffffffff1663a9059cbb33836040518363ffffffff1660e01b8152600401610f3a929190611bbb565b602060405180830381600087803b158015610f5457600080fd5b505af1158015610f68573d6000803e3d6000fd5b505050506040513d601f19601f82011682018060405250810190610f8c9190611867565b505b5050565b60086020528160005260406000208181548110610fae57600080fd5b90600052602060002001600091509150505481565b6060600860003373ffffffffffffffffffffffffffffffffffffffff1673ffffffffffffffffffffffffffffffffffffffff16815260200190815260200160002080548060200260200160405190810160405280929190818152602001828054801561104e57602002820191906000526020600020905b81548152602001906001019080831161103a575b5050505050905090565b60076020528060005260406000206000915090508060000160009054906101000a900473ffffffffffffffffffffffffffffffffffffffff16908060010154908060020154908060030154908060040160009054906101000a900460ff16905085565b600b5481565b60146020528060005260406000206000915090505481565b600c5481565b600e5481565b60006110f3600b544261174d565b905090565b60106020528060005260406000206000915090505481565b600560009054906101000a900473ffffffffffffffffffffffffffffffffffffffff1681565b3361113f6115d0565b600f8190555061114d6110e5565b600c81905550600f54600760008373ffffffffffffffffffffffffffffffffffffffff1673ffffffffffffffffffffffffffffffffffffffff16815260200190815260200160002060020181905550600073ffffffffffffffffffffffffffffffffffffffff168173ffffffffffffffffffffffffffffffffffffffff1614611263576111d9816104dd565b601160008373ffffffffffffffffffffffffffffffffffffffff1673ffffffffffffffffffffffffffffffffffffffff16815260200190815260200160002081905550600f54601060008373ffffffffffffffffffffffffffffffffffffffff1673ffffffffffffffffffffffffffffffffffffffff168152602001908152602001600020819055505b600082116112a6576040517f08c379a000000000000000000000000000000000000000000000000000000000815260040161129d90611cd4565b60405180910390fd5b7f000000000000000000000000000000000000000000000000000000000000000073ffffffffffffffffffffffffffffffffffffffff166323b872dd3330856040518463ffffffff1660e01b815260040161130393929190611b84565b602060405180830381600087803b15801561131d57600080fd5b505af1158015611331573d6000803e3d6000fd5b505050506040513d601f19601f820116820180604052508101906113559190611867565b5081601460003373ffffffffffffffffffffffffffffffffffffffff1673ffffffffffffffffffffffffffffffffffffffff16815260200190815260200160002060008282546113a59190611d94565b925050819055506040518060a001604052803373ffffffffffffffffffffffffffffffffffffffff168152602001428152602001600f54815260200183815260200160011515815250600760003373ffffffffffffffffffffffffffffffffffffffff1673ffffffffffffffffffffffffffffffffffffffff16815260200190815260200160002060008201518160000160006101000a81548173ffffffffffffffffffffffffffffffffffffffff021916908373ffffffffffffffffffffffffffffffffffffffff16021790555060208201518160010155604082015181600201556060820151816003015560808201518160040160006101000a81548160ff02191690831515021790555090505081601360008282546114c79190611d94565b925050819055506001600660008282546114e19190611d94565b925050819055505050565b600d5481565b600560009054906101000a900473ffffffffffffffffffffffffffffffffffffffff1673ffffffffffffffffffffffffffffffffffffffff163373ffffffffffffffffffffffffffffffffffffffff1614611582576040517f08c379a000000000000000000000000000000000000000000000000000000000815260040161157990611c94565b60405180910390fd5b42600b54106115c6576040517f08c379a00000000000000000000000000000000000000000000000000000000081526004016115bd90611c74565b60405180910390fd5b80600a8190555050565b60008060135414156115e657600f549050611638565b601354670de0b6b3a7640000600c546115fd6110e5565b6116079190611e75565b600e546116149190611e1b565b61161e9190611e1b565b6116289190611dea565b600f546116359190611d94565b90505b90565b611643611767565b600760008373ffffffffffffffffffffffffffffffffffffffff1673ffffffffffffffffffffffffffffffffffffffff1681526020019081526020016000206040518060a00160405290816000820160009054906101000a900473ffffffffffffffffffffffffffffffffffffffff1673ffffffffffffffffffffffffffffffffffffffff1673ffffffffffffffffffffffffffffffffffffffff1681526020016001820154815260200160028201548152602001600382015481526020016004820160009054906101000a900460ff1615151515815250509050919050565b600f5481565b7f000000000000000000000000000000000000000000000000000000000000000081565b60008183111561175d578161175f565b825b905092915050565b6040518060a00160405280600073ffffffffffffffffffffffffffffffffffffffff1681526020016000815260200160008152602001600081526020016000151581525090565b6000813590506117bd81611f73565b92915050565b6000815190506117d281611f8a565b92915050565b6000813590506117e781611fa1565b92915050565b6000815190506117fc81611fa1565b92915050565b60006020828403121561181457600080fd5b6000611822848285016117ae565b91505092915050565b6000806040838503121561183e57600080fd5b600061184c858286016117ae565b925050602061185d858286016117d8565b9150509250929050565b60006020828403121561187957600080fd5b6000611887848285016117c3565b91505092915050565b6000602082840312156118a257600080fd5b60006118b0848285016117d8565b91505092915050565b6000602082840312156118cb57600080fd5b60006118d9848285016117ed565b91505092915050565b60006118ee8383611b4b565b60208301905092915050565b61190381611ea9565b82525050565b61191281611ea9565b82525050565b600061192382611d5a565b61192d8185611d72565b935061193883611d4a565b8060005b8381101561196957815161195088826118e2565b975061195b83611d65565b92505060018101905061193c565b5085935050505092915050565b61197f81611ebb565b82525050565b61198e81611ebb565b82525050565b61199d81611ef1565b82525050565b60006119b0601c83611d83565b91507f726577617264206475726174696f6e206e6f742066696e6973686564000000006000830152602082019050919050565b60006119f0600e83611d83565b91507f6e6f7420617574686f72697a65640000000000000000000000000000000000006000830152602082019050919050565b6000611a30601783611d83565b91507f72657761726420616d6f756e74203e2062616c616e63650000000000000000006000830152602082019050919050565b6000611a70600a83611d83565b91507f616d6f756e74203d2030000000000000000000000000000000000000000000006000830152602082019050919050565b6000611ab0600f83611d83565b91507f7265776172642072617465203d203000000000000000000000000000000000006000830152602082019050919050565b60a082016000820151611af960008501826118fa565b506020820151611b0c6020850182611b4b565b506040820151611b1f6040850182611b4b565b506060820151611b326060850182611b4b565b506080820151611b456080850182611976565b50505050565b611b5481611ee7565b82525050565b611b6381611ee7565b82525050565b6000602082019050611b7e6000830184611909565b92915050565b6000606082019050611b996000830186611909565b611ba66020830185611909565b611bb36040830184611b5a565b949350505050565b6000604082019050611bd06000830185611909565b611bdd6020830184611b5a565b9392505050565b600060a082019050611bf96000830188611909565b611c066020830187611b5a565b611c136040830186611b5a565b611c206060830185611b5a565b611c2d6080830184611985565b9695505050505050565b60006020820190508181036000830152611c518184611918565b905092915050565b6000602082019050611c6e6000830184611994565b92915050565b60006020820190508181036000830152611c8d816119a3565b9050919050565b60006020820190508181036000830152611cad816119e3565b9050919050565b60006020820190508181036000830152611ccd81611a23565b9050919050565b60006020820190508181036000830152611ced81611a63565b9050919050565b60006020820190508181036000830152611d0d81611aa3565b9050919050565b600060a082019050611d296000830184611ae3565b92915050565b6000602082019050611d446000830184611b5a565b92915050565b6000819050602082019050919050565b600081519050919050565b6000602082019050919050565b600082825260208201905092915050565b600082825260208201905092915050565b6000611d9f82611ee7565b9150611daa83611ee7565b9250827fffffffffffffffffffffffffffffffffffffffffffffffffffffffffffffffff03821115611ddf57611dde611f15565b5b828201905092915050565b6000611df582611ee7565b9150611e0083611ee7565b925082611e1057611e0f611f44565b5b828204905092915050565b6000611e2682611ee7565b9150611e3183611ee7565b9250817fffffffffffffffffffffffffffffffffffffffffffffffffffffffffffffffff0483118215151615611e6a57611e69611f15565b5b828202905092915050565b6000611e8082611ee7565b9150611e8b83611ee7565b925082821015611e9e57611e9d611f15565b5b828203905092915050565b6000611eb482611ec7565b9050919050565b60008115159050919050565b600073ffffffffffffffffffffffffffffffffffffffff82169050919050565b6000819050919050565b6000611efc82611f03565b9050919050565b6000611f0e82611ec7565b9050919050565b7f4e487b7100000000000000000000000000000000000000000000000000000000600052601160045260246000fd5b7f4e487b7100000000000000000000000000000000000000000000000000000000600052601260045260246000fd5b611f7c81611ea9565b8114611f8757600080fd5b50565b611f9381611ebb565b8114611f9e57600080fd5b50565b611faa81611ee7565b8114611fb557600080fd5b5056fea2646970667358221220c12b6cd74178979444c8128a738a4d0b83ebff6813fffef463bb485be2ed1df564736f6c63430008000033",
  "linkReferences": {},
  "deployedLinkReferences": {}
}