{
  "_format": "hh-sol-artifact-1",
  "contractName": "Staking",
  "sourceName": "contracts/Staking.sol",
  "abi": [
    {
      "inputs": [
        {
          "internalType": "address",
          "name": "_HashBackToken",
          "type": "address"
        }
      ],
      "stateMutability": "nonpayable",
      "type": "constructor"
    },
    {
      "anonymous": false,
      "inputs": [
        {
          "indexed": false,
          "internalType": "address[]",
          "name": "_to",
          "type": "address[]"
        },
        {
          "indexed": false,
          "internalType": "address",
          "name": "from",
          "type": "address"
        },
        {
          "indexed": false,
          "internalType": "uint256",
          "name": "total",
          "type": "uint256"
        }
      ],
      "name": "LogTokenBulkSent",
      "type": "event"
    },
    {
      "inputs": [],
      "name": "HashBackToken",
      "outputs": [
        {
          "internalType": "contract IERC20",
          "name": "",
          "type": "address"
        }
      ],
      "stateMutability": "view",
      "type": "function"
    },
    {
      "inputs": [
        {
          "internalType": "address",
          "name": "",
          "type": "address"
        }
      ],
      "name": "balanceOf",
      "outputs": [
        {
          "internalType": "uint256",
          "name": "",
          "type": "uint256"
        }
      ],
      "stateMutability": "view",
      "type": "function"
    },
    {
      "inputs": [],
      "name": "currentPositionId",
      "outputs": [
        {
          "internalType": "uint256",
          "name": "",
          "type": "uint256"
        }
      ],
      "stateMutability": "view",
      "type": "function"
    },
    {
      "inputs": [],
      "name": "duration",
      "outputs": [
        {
          "internalType": "uint256",
          "name": "",
          "type": "uint256"
        }
      ],
      "stateMutability": "view",
      "type": "function"
    },
    {
      "inputs": [
        {
          "internalType": "address",
          "name": "_account",
          "type": "address"
        }
      ],
      "name": "earned",
      "outputs": [
        {
          "internalType": "uint256",
          "name": "",
          "type": "uint256"
        }
      ],
      "stateMutability": "view",
      "type": "function"
    },
    {
      "inputs": [],
      "name": "finishAt",
      "outputs": [
        {
          "internalType": "uint256",
          "name": "",
          "type": "uint256"
        }
      ],
      "stateMutability": "view",
      "type": "function"
    },
    {
      "inputs": [
        {
          "internalType": "address",
          "name": "_account",
          "type": "address"
        }
      ],
      "name": "getPositionById",
      "outputs": [
        {
          "components": [
            {
              "internalType": "address",
              "name": "walletAddress",
              "type": "address"
            },
            {
              "internalType": "uint256",
              "name": "createdDate",
              "type": "uint256"
            },
            {
              "internalType": "uint256",
              "name": "rewardsPerTokenStored",
              "type": "uint256"
            },
            {
              "internalType": "uint256",
              "name": "stakedAmount",
              "type": "uint256"
            },
            {
              "internalType": "bool",
              "name": "open",
              "type": "bool"
            }
          ],
          "internalType": "struct Staking.Position",
          "name": "",
          "type": "tuple"
        }
      ],
      "stateMutability": "view",
      "type": "function"
    },
    {
      "inputs": [],
      "name": "getPositionIdsForAddress",
      "outputs": [
        {
          "internalType": "uint256[]",
          "name": "",
          "type": "uint256[]"
        }
      ],
      "stateMutability": "view",
      "type": "function"
    },
    {
      "inputs": [],
      "name": "getReward",
      "outputs": [],
      "stateMutability": "nonpayable",
      "type": "function"
    },
    {
      "inputs": [],
      "name": "lastTimeRewardApplicable",
      "outputs": [
        {
          "internalType": "uint256",
          "name": "",
          "type": "uint256"
        }
      ],
      "stateMutability": "view",
      "type": "function"
    },
    {
      "inputs": [],
      "name": "lastUpdateTime",
      "outputs": [
        {
          "internalType": "uint256",
          "name": "",
          "type": "uint256"
        }
      ],
      "stateMutability": "view",
      "type": "function"
    },
    {
      "inputs": [
        {
          "internalType": "address[]",
          "name": "_to",
          "type": "address[]"
        },
        {
          "internalType": "uint256",
          "name": "_value",
          "type": "uint256"
        }
      ],
      "name": "multiSendSameValue",
      "outputs": [],
      "stateMutability": "nonpayable",
      "type": "function"
    },
    {
      "inputs": [
        {
          "internalType": "uint256",
          "name": "_amount",
          "type": "uint256"
        }
      ],
      "name": "notifyRewardAmount",
      "outputs": [],
      "stateMutability": "nonpayable",
      "type": "function"
    },
    {
      "inputs": [],
      "name": "owner",
      "outputs": [
        {
          "internalType": "address",
          "name": "",
          "type": "address"
        }
      ],
      "stateMutability": "view",
      "type": "function"
    },
    {
      "inputs": [
        {
          "internalType": "address",
          "name": "",
          "type": "address"
        },
        {
          "internalType": "uint256",
          "name": "",
          "type": "uint256"
        }
      ],
      "name": "positionIdsByAddress",
      "outputs": [
        {
          "internalType": "uint256",
          "name": "",
          "type": "uint256"
        }
      ],
      "stateMutability": "view",
      "type": "function"
    },
    {
      "inputs": [
        {
          "internalType": "address",
          "name": "",
          "type": "address"
        }
      ],
      "name": "positions",
      "outputs": [
        {
          "internalType": "address",
          "name": "walletAddress",
          "type": "address"
        },
        {
          "internalType": "uint256",
          "name": "createdDate",
          "type": "uint256"
        },
        {
          "internalType": "uint256",
          "name": "rewardsPerTokenStored",
          "type": "uint256"
        },
        {
          "internalType": "uint256",
          "name": "stakedAmount",
          "type": "uint256"
        },
        {
          "internalType": "bool",
          "name": "open",
          "type": "bool"
        }
      ],
      "stateMutability": "view",
      "type": "function"
    },
    {
      "inputs": [],
      "name": "rewardPerToken",
      "outputs": [
        {
          "internalType": "uint256",
          "name": "",
          "type": "uint256"
        }
      ],
      "stateMutability": "view",
      "type": "function"
    },
    {
      "inputs": [],
      "name": "rewardPerTokenStored",
      "outputs": [
        {
          "internalType": "uint256",
          "name": "",
          "type": "uint256"
        }
      ],
      "stateMutability": "view",
      "type": "function"
    },
    {
      "inputs": [],
      "name": "rewardRate",
      "outputs": [
        {
          "internalType": "uint256",
          "name": "",
          "type": "uint256"
        }
      ],
      "stateMutability": "view",
      "type": "function"
    },
    {
      "inputs": [
        {
          "internalType": "address",
          "name": "",
          "type": "address"
        }
      ],
      "name": "rewards",
      "outputs": [
        {
          "internalType": "uint256",
          "name": "",
          "type": "uint256"
        }
      ],
      "stateMutability": "view",
      "type": "function"
    },
    {
      "inputs": [
        {
          "internalType": "uint256",
          "name": "_duration",
          "type": "uint256"
        }
      ],
      "name": "setRewardsDuration",
      "outputs": [],
      "stateMutability": "nonpayable",
      "type": "function"
    },
    {
      "inputs": [
        {
          "internalType": "uint256",
          "name": "_amount",
          "type": "uint256"
        }
      ],
      "name": "stake",
      "outputs": [],
      "stateMutability": "nonpayable",
      "type": "function"
    },
    {
      "inputs": [
        {
          "internalType": "address",
          "name": "",
          "type": "address"
        }
      ],
      "name": "tokensStaked",
      "outputs": [
        {
          "internalType": "uint256",
          "name": "",
          "type": "uint256"
        }
      ],
      "stateMutability": "view",
      "type": "function"
    },
    {
      "inputs": [],
      "name": "updatedAt",
      "outputs": [
        {
          "internalType": "uint256",
          "name": "",
          "type": "uint256"
        }
      ],
      "stateMutability": "view",
      "type": "function"
    },
    {
      "inputs": [
        {
          "internalType": "address",
          "name": "",
          "type": "address"
        }
      ],
      "name": "userRewardPerTokenPaid",
      "outputs": [
        {
          "internalType": "uint256",
          "name": "",
          "type": "uint256"
        }
      ],
      "stateMutability": "view",
      "type": "function"
    },
    {
      "inputs": [
        {
          "internalType": "uint256",
          "name": "_amount",
          "type": "uint256"
        }
      ],
      "name": "withdraw",
      "outputs": [],
      "stateMutability": "nonpayable",
      "type": "function"
    }
  ],
  "bytecode": "0x60a06040526103e8600e553480156200001757600080fd5b50604051620027043803806200270483398181016040528101906200003d9190620000db565b600060068190555033600560006101000a81548173ffffffffffffffffffffffffffffffffffffffff021916908373ffffffffffffffffffffffffffffffffffffffff1602179055508073ffffffffffffffffffffffffffffffffffffffff1660808173ffffffffffffffffffffffffffffffffffffffff1660601b815250505062000155565b600081519050620000d5816200013b565b92915050565b600060208284031215620000ee57600080fd5b6000620000fe84828501620000c4565b91505092915050565b600062000114826200011b565b9050919050565b600073ffffffffffffffffffffffffffffffffffffffff82169050919050565b620001468162000107565b81146200015257600080fd5b50565b60805160601c61256d620001976000396000818161083301528181610c4001528181610f180152818161120a0152818161152d01526119b0015261256d6000f3fe608060405234801561001057600080fd5b506004361061018d5760003560e01c80637519ab50116100de578063a694fc3a11610097578063cd3daf9d11610071578063cd3daf9d1461048a578063d8a0aa6c146104a8578063df136d65146104d8578063fc510c5c146104f65761018d565b8063a694fc3a14610434578063c8f33c9114610450578063cc1a378f1461046e5761018d565b80637519ab5014610370578063758dae6c1461038e5780637b0a47ee146103aa57806380faa57d146103c85780638b876347146103e65780638da5cb5b146104165761018d565b80633c6b16ab1161014b5780634b4ea954116101255780634b4ea954146102d057806355f57510146102ee57806367d3b4881461032257806370a08231146103405761018d565b80633c6b16ab1461027a5780633d18b9121461029657806345eae373146102a05761018d565b80628cc262146101925780630700037d146101c25780630fb5a6b4146101f25780631131c8cd146102105780632cf01b551461022e5780632e1a7d4d1461025e575b600080fd5b6101ac60048036038101906101a79190611b1d565b610514565b6040516101b991906121b2565b60405180910390f35b6101dc60048036038101906101d79190611b1d565b610616565b6040516101e991906121b2565b60405180910390f35b6101fa61062e565b60405161020791906121b2565b60405180910390f35b610218610634565b60405161022591906121b2565b60405180910390f35b61024860048036038101906102439190611b1d565b61063a565b60405161025591906121b2565b60405180910390f35b61027860048036038101906102739190611bff565b610652565b005b610294600480360381019061028f9190611bff565b6109d9565b005b61029e610d57565b005b6102ba60048036038101906102b59190611b46565b610fc9565b6040516102c791906121b2565b60405180910390f35b6102d8610ffa565b6040516102e5919061209a565b60405180910390f35b61030860048036038101906103039190611b1d565b61108f565b604051610319959493929190612009565b60405180910390f35b61032a6110f2565b60405161033791906121b2565b60405180910390f35b61035a60048036038101906103559190611b1d565b6110f8565b60405161036791906121b2565b60405180910390f35b610378611110565b60405161038591906121b2565b60405180910390f35b6103a860048036038101906103a39190611b82565b611116565b005b6103b2611364565b6040516103bf91906121b2565b60405180910390f35b6103d061136a565b6040516103dd91906121b2565b60405180910390f35b61040060048036038101906103fb9190611b1d565b61137d565b60405161040d91906121b2565b60405180910390f35b61041e611395565b60405161042b9190611f8e565b60405180910390f35b61044e60048036038101906104499190611bff565b6113bb565b005b610458611771565b60405161046591906121b2565b60405180910390f35b61048860048036038101906104839190611bff565b611777565b005b610492611855565b60405161049f91906121b2565b60405180910390f35b6104c260048036038101906104bd9190611b1d565b6118c0565b6040516104cf9190612197565b60405180910390f35b6104e06119a8565b6040516104ed91906121b2565b60405180910390f35b6104fe6119ae565b60405161050b91906120bc565b60405180910390f35b6000601160008373ffffffffffffffffffffffffffffffffffffffff1673ffffffffffffffffffffffffffffffffffffffff16815260200190815260200160002054670de0b6b3a7640000601060008573ffffffffffffffffffffffffffffffffffffffff1673ffffffffffffffffffffffffffffffffffffffff168152602001908152602001600020546105a7611855565b6105b1919061238e565b601460008673ffffffffffffffffffffffffffffffffffffffff1673ffffffffffffffffffffffffffffffffffffffff168152602001908152602001600020546105fb9190612334565b6106059190612303565b61060f91906122ad565b9050919050565b60116020528060005260406000206000915090505481565b600a5481565b60065481565b60126020528060005260406000206000915090505481565b3361065b611855565b600f8190555061066961136a565b600c81905550600f54600760008373ffffffffffffffffffffffffffffffffffffffff1673ffffffffffffffffffffffffffffffffffffffff16815260200190815260200160002060020181905550600073ffffffffffffffffffffffffffffffffffffffff168173ffffffffffffffffffffffffffffffffffffffff161461077f576106f581610514565b601160008373ffffffffffffffffffffffffffffffffffffffff1673ffffffffffffffffffffffffffffffffffffffff16815260200190815260200160002081905550600f54601060008373ffffffffffffffffffffffffffffffffffffffff1673ffffffffffffffffffffffffffffffffffffffff168152602001908152602001600020819055505b600082116107c2576040517f08c379a00000000000000000000000000000000000000000000000000000000081526004016107b990612157565b60405180910390fd5b81601460003373ffffffffffffffffffffffffffffffffffffffff1673ffffffffffffffffffffffffffffffffffffffff1681526020019081526020016000206000828254610811919061238e565b92505081905550816013600082825461082a919061238e565b925050819055507f000000000000000000000000000000000000000000000000000000000000000073ffffffffffffffffffffffffffffffffffffffff1663a9059cbb33846040518363ffffffff1660e01b815260040161088c929190611fe0565b602060405180830381600087803b1580156108a657600080fd5b505af11580156108ba573d6000803e3d6000fd5b505050506040513d601f19601f820116820180604052508101906108de9190611bd6565b5081600760003373ffffffffffffffffffffffffffffffffffffffff1673ffffffffffffffffffffffffffffffffffffffff1681526020019081526020016000206003015461092d919061238e565b506000600760003373ffffffffffffffffffffffffffffffffffffffff1673ffffffffffffffffffffffffffffffffffffffff1681526020019081526020016000206003015414156109d5576000600760003373ffffffffffffffffffffffffffffffffffffffff1673ffffffffffffffffffffffffffffffffffffffff16815260200190815260200160002060040160006101000a81548160ff0219169083151502179055505b5050565b600560009054906101000a900473ffffffffffffffffffffffffffffffffffffffff1673ffffffffffffffffffffffffffffffffffffffff163373ffffffffffffffffffffffffffffffffffffffff1614610a69576040517f08c379a0000000000000000000000000000000000000000000000000000000008152600401610a60906120f7565b60405180910390fd5b6000610a73611855565b600f81905550610a8161136a565b600c81905550600f54600760008373ffffffffffffffffffffffffffffffffffffffff1673ffffffffffffffffffffffffffffffffffffffff16815260200190815260200160002060020181905550600073ffffffffffffffffffffffffffffffffffffffff168173ffffffffffffffffffffffffffffffffffffffff1614610b9757610b0d81610514565b601160008373ffffffffffffffffffffffffffffffffffffffff1673ffffffffffffffffffffffffffffffffffffffff16815260200190815260200160002081905550600f54601060008373ffffffffffffffffffffffffffffffffffffffff1673ffffffffffffffffffffffffffffffffffffffff168152602001908152602001600020819055505b600b544210610bb957600a5482610bae9190612303565b600e81905550610bf9565b6000600e5442600b54610bcc919061238e565b610bd69190612334565b9050600a548184610be791906122ad565b610bf19190612303565b600e81905550505b6000600e5411610c3e576040517f08c379a0000000000000000000000000000000000000000000000000000000008152600401610c3590612177565b60405180910390fd5b7f000000000000000000000000000000000000000000000000000000000000000073ffffffffffffffffffffffffffffffffffffffff166370a08231306040518263ffffffff1660e01b8152600401610c979190611f8e565b60206040518083038186803b158015610caf57600080fd5b505afa158015610cc3573d6000803e3d6000fd5b505050506040513d601f19601f82011682018060405250810190610ce79190611c28565b600a54600e54610cf79190612334565b1115610d38576040517f08c379a0000000000000000000000000000000000000000000000000000000008152600401610d2f90612117565b60405180910390fd5b600a5442610d4691906122ad565b600b8190555042600c819055505050565b33610d60611855565b600f81905550610d6e61136a565b600c81905550600f54600760008373ffffffffffffffffffffffffffffffffffffffff1673ffffffffffffffffffffffffffffffffffffffff16815260200190815260200160002060020181905550600073ffffffffffffffffffffffffffffffffffffffff168173ffffffffffffffffffffffffffffffffffffffff1614610e8457610dfa81610514565b601160008373ffffffffffffffffffffffffffffffffffffffff1673ffffffffffffffffffffffffffffffffffffffff16815260200190815260200160002081905550600f54601060008373ffffffffffffffffffffffffffffffffffffffff1673ffffffffffffffffffffffffffffffffffffffff168152602001908152602001600020819055505b6000601160003373ffffffffffffffffffffffffffffffffffffffff1673ffffffffffffffffffffffffffffffffffffffff1681526020019081526020016000205490506000811115610fc5576000601160003373ffffffffffffffffffffffffffffffffffffffff1673ffffffffffffffffffffffffffffffffffffffff168152602001908152602001600020819055507f000000000000000000000000000000000000000000000000000000000000000073ffffffffffffffffffffffffffffffffffffffff1663a9059cbb33836040518363ffffffff1660e01b8152600401610f71929190611fe0565b602060405180830381600087803b158015610f8b57600080fd5b505af1158015610f9f573d6000803e3d6000fd5b505050506040513d601f19601f82011682018060405250810190610fc39190611bd6565b505b5050565b60086020528160005260406000208181548110610fe557600080fd5b90600052602060002001600091509150505481565b6060600860003373ffffffffffffffffffffffffffffffffffffffff1673ffffffffffffffffffffffffffffffffffffffff16815260200190815260200160002080548060200260200160405190810160405280929190818152602001828054801561108557602002820191906000526020600020905b815481526020019060010190808311611071575b5050505050905090565b60076020528060005260406000206000915090508060000160009054906101000a900473ffffffffffffffffffffffffffffffffffffffff16908060010154908060020154908060030154908060040160009054906101000a900460ff16905085565b600b5481565b60146020528060005260406000206000915090505481565b600c5481565b600560009054906101000a900473ffffffffffffffffffffffffffffffffffffffff1673ffffffffffffffffffffffffffffffffffffffff163373ffffffffffffffffffffffffffffffffffffffff16146111a6576040517f08c379a000000000000000000000000000000000000000000000000000000000815260040161119d906120f7565b60405180910390fd5b600033905060ff835111156111f0576040517f08c379a00000000000000000000000000000000000000000000000000000000081526004016111e790612137565b60405180910390fd5b600083519050600083826112049190612334565b905060007f0000000000000000000000000000000000000000000000000000000000000000905060005b86518160ff161015611320578173ffffffffffffffffffffffffffffffffffffffff166323b872dd86898460ff1681518110611293577f4e487b7100000000000000000000000000000000000000000000000000000000600052603260045260246000fd5b6020026020010151896040518463ffffffff1660e01b81526004016112ba93929190611fa9565b602060405180830381600087803b1580156112d457600080fd5b505af11580156112e8573d6000803e3d6000fd5b505050506040513d601f19601f8201168201806040525081019061130c9190611bd6565b5080806113189061243b565b91505061122e565b507fc2c974fd15d81a2abc357983812de4256e4bc25ce0d86244f13a277f828383a58685846040516113549392919061205c565b60405180910390a1505050505050565b600e5481565b6000611378600b54426119d2565b905090565b60106020528060005260406000206000915090505481565b600560009054906101000a900473ffffffffffffffffffffffffffffffffffffffff1681565b336113c4611855565b600f819055506113d261136a565b600c81905550600f54600760008373ffffffffffffffffffffffffffffffffffffffff1673ffffffffffffffffffffffffffffffffffffffff16815260200190815260200160002060020181905550600073ffffffffffffffffffffffffffffffffffffffff168173ffffffffffffffffffffffffffffffffffffffff16146114e85761145e81610514565b601160008373ffffffffffffffffffffffffffffffffffffffff1673ffffffffffffffffffffffffffffffffffffffff16815260200190815260200160002081905550600f54601060008373ffffffffffffffffffffffffffffffffffffffff1673ffffffffffffffffffffffffffffffffffffffff168152602001908152602001600020819055505b6000821161152b576040517f08c379a000000000000000000000000000000000000000000000000000000000815260040161152290612157565b60405180910390fd5b7f000000000000000000000000000000000000000000000000000000000000000073ffffffffffffffffffffffffffffffffffffffff166323b872dd3330856040518463ffffffff1660e01b815260040161158893929190611fa9565b602060405180830381600087803b1580156115a257600080fd5b505af11580156115b6573d6000803e3d6000fd5b505050506040513d601f19601f820116820180604052508101906115da9190611bd6565b5081601460003373ffffffffffffffffffffffffffffffffffffffff1673ffffffffffffffffffffffffffffffffffffffff168152602001908152602001600020600082825461162a91906122ad565b925050819055506040518060a001604052803373ffffffffffffffffffffffffffffffffffffffff168152602001428152602001600f54815260200183815260200160011515815250600760003373ffffffffffffffffffffffffffffffffffffffff1673ffffffffffffffffffffffffffffffffffffffff16815260200190815260200160002060008201518160000160006101000a81548173ffffffffffffffffffffffffffffffffffffffff021916908373ffffffffffffffffffffffffffffffffffffffff16021790555060208201518160010155604082015181600201556060820151816003015560808201518160040160006101000a81548160ff021916908315150217905550905050816013600082825461174c91906122ad565b9250508190555060016006600082825461176691906122ad565b925050819055505050565b600d5481565b600560009054906101000a900473ffffffffffffffffffffffffffffffffffffffff1673ffffffffffffffffffffffffffffffffffffffff163373ffffffffffffffffffffffffffffffffffffffff1614611807576040517f08c379a00000000000000000000000000000000000000000000000000000000081526004016117fe906120f7565b60405180910390fd5b42600b541061184b576040517f08c379a0000000000000000000000000000000000000000000000000000000008152600401611842906120d7565b60405180910390fd5b80600a8190555050565b600080601354141561186b57600f5490506118bd565b601354670de0b6b3a7640000600c5461188261136a565b61188c919061238e565b600e546118999190612334565b6118a39190612334565b6118ad9190612303565b600f546118ba91906122ad565b90505b90565b6118c86119ec565b600760008373ffffffffffffffffffffffffffffffffffffffff1673ffffffffffffffffffffffffffffffffffffffff1681526020019081526020016000206040518060a00160405290816000820160009054906101000a900473ffffffffffffffffffffffffffffffffffffffff1673ffffffffffffffffffffffffffffffffffffffff1673ffffffffffffffffffffffffffffffffffffffff1681526020016001820154815260200160028201548152602001600382015481526020016004820160009054906101000a900460ff1615151515815250509050919050565b600f5481565b7f000000000000000000000000000000000000000000000000000000000000000081565b6000818311156119e257816119e4565b825b905092915050565b6040518060a00160405280600073ffffffffffffffffffffffffffffffffffffffff1681526020016000815260200160008152602001600081526020016000151581525090565b6000611a46611a41846121fe565b6121cd565b90508083825260208201905082856020860282011115611a6557600080fd5b60005b85811015611a955781611a7b8882611a9f565b845260208401935060208301925050600181019050611a68565b5050509392505050565b600081359050611aae816124f2565b92915050565b600082601f830112611ac557600080fd5b8135611ad5848260208601611a33565b91505092915050565b600081519050611aed81612509565b92915050565b600081359050611b0281612520565b92915050565b600081519050611b1781612520565b92915050565b600060208284031215611b2f57600080fd5b6000611b3d84828501611a9f565b91505092915050565b60008060408385031215611b5957600080fd5b6000611b6785828601611a9f565b9250506020611b7885828601611af3565b9150509250929050565b60008060408385031215611b9557600080fd5b600083013567ffffffffffffffff811115611baf57600080fd5b611bbb85828601611ab4565b9250506020611bcc85828601611af3565b9150509250929050565b600060208284031215611be857600080fd5b6000611bf684828501611ade565b91505092915050565b600060208284031215611c1157600080fd5b6000611c1f84828501611af3565b91505092915050565b600060208284031215611c3a57600080fd5b6000611c4884828501611b08565b91505092915050565b6000611c5d8383611c81565b60208301905092915050565b6000611c758383611f70565b60208301905092915050565b611c8a816123c2565b82525050565b611c99816123c2565b82525050565b6000611caa8261224a565b611cb4818561227a565b9350611cbf8361222a565b8060005b83811015611cf0578151611cd78882611c51565b9750611ce283612260565b925050600181019050611cc3565b5085935050505092915050565b6000611d0882612255565b611d12818561228b565b9350611d1d8361223a565b8060005b83811015611d4e578151611d358882611c69565b9750611d408361226d565b925050600181019050611d21565b5085935050505092915050565b611d64816123d4565b82525050565b611d73816123d4565b82525050565b611d8281612417565b82525050565b6000611d95601c8361229c565b91507f726577617264206475726174696f6e206e6f742066696e6973686564000000006000830152602082019050919050565b6000611dd5600e8361229c565b91507f6e6f7420617574686f72697a65640000000000000000000000000000000000006000830152602082019050919050565b6000611e1560178361229c565b91507f72657761726420616d6f756e74203e2062616c616e63650000000000000000006000830152602082019050919050565b6000611e5560128361229c565b91507f657863656564206d617820616c6c6f77656400000000000000000000000000006000830152602082019050919050565b6000611e95600a8361229c565b91507f616d6f756e74203d2030000000000000000000000000000000000000000000006000830152602082019050919050565b6000611ed5600f8361229c565b91507f7265776172642072617465203d203000000000000000000000000000000000006000830152602082019050919050565b60a082016000820151611f1e6000850182611c81565b506020820151611f316020850182611f70565b506040820151611f446040850182611f70565b506060820151611f576060850182611f70565b506080820151611f6a6080850182611d5b565b50505050565b611f7981612400565b82525050565b611f8881612400565b82525050565b6000602082019050611fa36000830184611c90565b92915050565b6000606082019050611fbe6000830186611c90565b611fcb6020830185611c90565b611fd86040830184611f7f565b949350505050565b6000604082019050611ff56000830185611c90565b6120026020830184611f7f565b9392505050565b600060a08201905061201e6000830188611c90565b61202b6020830187611f7f565b6120386040830186611f7f565b6120456060830185611f7f565b6120526080830184611d6a565b9695505050505050565b600060608201905081810360008301526120768186611c9f565b90506120856020830185611c90565b6120926040830184611f7f565b949350505050565b600060208201905081810360008301526120b48184611cfd565b905092915050565b60006020820190506120d16000830184611d79565b92915050565b600060208201905081810360008301526120f081611d88565b9050919050565b6000602082019050818103600083015261211081611dc8565b9050919050565b6000602082019050818103600083015261213081611e08565b9050919050565b6000602082019050818103600083015261215081611e48565b9050919050565b6000602082019050818103600083015261217081611e88565b9050919050565b6000602082019050818103600083015261219081611ec8565b9050919050565b600060a0820190506121ac6000830184611f08565b92915050565b60006020820190506121c76000830184611f7f565b92915050565b6000604051905081810181811067ffffffffffffffff821117156121f4576121f36124c3565b5b8060405250919050565b600067ffffffffffffffff821115612219576122186124c3565b5b602082029050602081019050919050565b6000819050602082019050919050565b6000819050602082019050919050565b600081519050919050565b600081519050919050565b6000602082019050919050565b6000602082019050919050565b600082825260208201905092915050565b600082825260208201905092915050565b600082825260208201905092915050565b60006122b882612400565b91506122c383612400565b9250827fffffffffffffffffffffffffffffffffffffffffffffffffffffffffffffffff038211156122f8576122f7612465565b5b828201905092915050565b600061230e82612400565b915061231983612400565b92508261232957612328612494565b5b828204905092915050565b600061233f82612400565b915061234a83612400565b9250817fffffffffffffffffffffffffffffffffffffffffffffffffffffffffffffffff048311821515161561238357612382612465565b5b828202905092915050565b600061239982612400565b91506123a483612400565b9250828210156123b7576123b6612465565b5b828203905092915050565b60006123cd826123e0565b9050919050565b60008115159050919050565b600073ffffffffffffffffffffffffffffffffffffffff82169050919050565b6000819050919050565b600060ff82169050919050565b600061242282612429565b9050919050565b6000612434826123e0565b9050919050565b60006124468261240a565b915060ff82141561245a57612459612465565b5b600182019050919050565b7f4e487b7100000000000000000000000000000000000000000000000000000000600052601160045260246000fd5b7f4e487b7100000000000000000000000000000000000000000000000000000000600052601260045260246000fd5b7f4e487b7100000000000000000000000000000000000000000000000000000000600052604160045260246000fd5b6124fb816123c2565b811461250657600080fd5b50565b612512816123d4565b811461251d57600080fd5b50565b61252981612400565b811461253457600080fd5b5056fea26469706673582212205dd8ecc7f047414cc196695892f6dd3d2a72f6d89b8309056e8cbf34853acfc464736f6c63430008000033",
  "linkReferences": {},
  "deployedLinkReferences": {}
}